:1000000001308A003C280000831A0A28A400030E4D
:10001000A5000F288312A400030EA500A5140A084A
:10002000AB008A018313A40E0408A6002008A700D1
:100030002108A8002208A9002308AA0083120B1E89
:1000400023288B1842288C308400001C29280C1887
:100050003729260884002708A0002808A1002908BD
:10006000A2002A08A3002B088A00250E8300831211
:10007000240EA51883160900FF2383169000003074
:100080008A004029AD08031954280F08A3000E0860
:10009000A0000F082302031D45282008B8002308EC
:1000A000B9008E018F018E012D08FB3E031829290E
:1000B000053E2E29153090008E018F018E010130F2
:1000C000AD00B001831601172A2983123908113CAB
:1000D00003187128FF3A031D7B2838088E3C031C47
:1000E0007B283908103C031C7E28031D7B28380818
:1000F000993C031C7E28AD01900180280230AD00A0
:10010000831601132A2983123908083C03188F2803
:10011000FF3A031D99283808C43C031C9928390864
:10012000073C031C9E28031D99283808CF3C031C5C
:100130009E28AD01900183162A2983120330AD0059
:10014000831601172A2983123908003C0318AF28A7
:10015000FF3A031DB62838085E3C031CB628B908D0
:10016000031DB9283808C73C031CB928AD0190010C
:10017000BB280430AD00831601132A2983123908E5
:10018000023C0318CA28FF3A031DD1283808843CD2
:10019000031CD128B908031DD6283808C73C031C06
:1001A000D628AD01900183162A2983123908003C14
:1001B0000318FD28FF3A031DE1283808F43C031812
:1001C000FD2830081F3CBA00A301A201A1010130A3
:1001D000A0003A08BB000319F4280310A00DA10DDC
:1001E000A20DA30DBB0BED282008B3042108B40415
:1001F0002208B5042308B6041D2930081F3CBA00A4
:10020000A301A201A1010130A0003A08BB0003191B
:1002100010290310A00DA10DA20DA30DBB0B0929E0
:10022000FF30A006A106A206A3062008B3052108F8
:10023000B4052208B5052308B605B00A30081F3CEE
:10024000031824292C140B120330AD008316011758
:100250008312831683128B108A1129280A148A109C
:100260000A1182075A2866288428A428BF28AD01CD
:1002700083160113831290010C100C108A11292887
:1002800003081F3983002C10AD011F1300308316A3
:100290009100073083129900C0308B040B1683162F
:1002A000011383120C1083160C1483122C1C7A2950
:1002B0002C10AD0190013508B1003608B2003408A9
:1002C000AE003308AF000B168316011383123308F8
:1002D000FE3C031D7A29340B7A2935087F3C031D27
:1002E0007A293608803C031D7A2983168711083045
:0802F000831287065629630002
:02400E00843FED
:00000001FF
;PIC16F676
;CRC=ADD4  CREATED="08-Oct-20 18:03"
