:1000000002308A0040280000831A0A28A400030E48
:10001000A5000F288312A400030EA500A5140A084A
:10002000AB008A018313A40E0408A6002008A700D1
:100030002108A8002208A9002308AA0083120B1E89
:1000400023288B185C288C308400001C29280C186D
:1000500039298B1E2D280B194628260884002708CD
:10006000A0002808A1002908A2002A08A3002B0844
:100070008A00250E83008312240EA518831609001A
:10008000FF238316900000308A00442A3C30810010
:100090000B11B30A0319B40A31083302031D59289E
:1000A00032083402031D5928B401B3010330B500EE
:1000B000AC110B118A112D28AE0803196E280F08F8
:1000C000A3000E08A0000F082302031D5F282008CC
:1000D000BA002308BB008E018F018E012E08FB3E63
:1000E00003182B29053E3029153090008E018F0111
:1000F0008E010130AE00AF01831601172C29831247
:100100003B08113C03188B28FF3A031D95283A0839
:100110008E3C031C95283B08103C031C9828031DAB
:1001200095283A08993C031C9828AE0190019A281A
:100130000230AE00831601132C2983123B08083CC1
:100140000318A928FF3A031DB3283A08C43C031C2E
:10015000B3283B08073C031CB828031DB3283A0802
:10016000CF3C031CB828AE01900183162C298312C2
:100170000330AE00831601172C2983123B08003C84
:100180000318C928FF3A031DD0283A085E3C031C17
:10019000D028BB08031DD3283A08C73C031CD3282A
:1001A000AE019001D5280430AE00831601132C292E
:1001B00083123B08023C0318E428FF3A031DEB2896
:1001C0003A08843C031CEB28BB08031DF0283A08BE
:1001D000C73C031CF028AE01900183162C29831222
:1001E0002F08173C03181F293B08003C03180F2950
:1001F000FF3A031DFF283A08F43C03180F292F0883
:100200001F3CBC000130A0003C08A10003190C29D0
:100210000310A00DA10B08292008B0041F292F08E6
:100220001F3CBC000130A0003C08A10003191C29A0
:100230000310A00DA10B18292008FF3AB005AF0A42
:100240002F081F3C031826292D140B120330AE0073
:10025000831601178312831683128B108A112D289F
:100260000A148A100A118207742880289E28BE2842
:10027000D928AE0183160113831290010C100C10C3
:100280008A112D282C1A462907114729071583168C
:1002900007118312AC1A4E2987104F298714831631
:1002A000871083122C1B5629071057290714831611
:1002B0000710831208008B122C12AC122C1342214F
:1002C00008002C10AC102C11AC115B218512831688
:1002D00085128312080085168316851264308312F6
:1002E000B700373084000008031984290130A100C9
:1002F000A001A00B7929A10B78294A30A000A00BFE
:100300007F298229800B7629851283168512831214
:100310000800C0308B040B168316011383120C10D7
:1003200083160C140108C0390738810083122D1080
:10033000AE016121013083169B009C131C141A0826
:100340008312B500023083169B009C131C141A08FC
:100350008312A100AC112118AC153508B600AC13FE
:10036000AC19AC176B21552A2C14AC102C11642A33
:100370002C10AC142C11642A2C10AC102C15642AEF
:100380002C18C4298712C529871683168712831251
:10039000AC18CC290712CD29071683160712831231
:1003A0002C19D4298711D529871583168711831213
:1003B000AC19DC290510DD290514831605108312FC
:1003C000652A2C18E729AC18E7292C1DB5012C1C2F
:1003D000EF29AC18EF292C19EF290130B5002C18A2
:1003E000F729AC1CF7292C19F7290230B5002C1875
:1003F000FF29AC18FF292C1DFF290330B500702AF6
:100400002C18062AAC18062A2C1D082A0830AC061F
:100410007B2A0B08A0008B13013083169B008312EC
:10042000350883169A009C131C1555309D00AA3080
:100430009D009C149C181A2A1C11831220088B04FE
:100440000030AC190130B7000B08A0008B1302304C
:1004500083169B008312370883169A009C131C1581
:1004600055309D00AA309D009C149C18352A1C1103
:10047000831220088B04892A3C3081008B160B11D3
:10048000B401B3014221080003081F3983002D1075
:10049000AE01B201B101B401B3011F1300308316E4
:1004A000910007308312990089292D188F2A350869
:1004B000FC3E0318642A043E2F2BB429642AB82971
:1004C000642ABC29642A6121C02983160516831277
:1004D000051A702A831605168312051E6A2AE12959
:1004E00083168514831285187B2A8316851483123C
:1004F000851C752A002A35083602031D872AA001AB
:10050000AC19A0172C082006803903198E2A6B21FC
:10051000092A3508B600AC13AC19AC17552A2D10B2
:10052000AE0190010B168316011383123008FE3AB8
:100530000319A72A043A0319C62A1E3A0319CF2A17
:10054000183A0319092B043A03192A2B2D2B2C1CBA
:10055000AD2AAC18AD2A2C1D2D2B2C18B52AAC18A1
:10056000B52A2C19B52AB501C52A2C18BD2AAC1CF0
:10057000BD2A2C19BD2AB501C52A2C18C52AAC18CC
:10058000C52A2C1DC52A0130B5002D2B2C18CC2ACC
:10059000AC18CC2A2C1D2D2B0830AC062D2B2C187A
:1005A000D52AAC18D52A2C1D2D2B2C1AE32AAC1ACF
:1005B000E32A2C1BE32AB201C830B1002C16AC127E
:1005C0002C133C22072B2C1EF22AAC1AF22A2C1BCD
:1005D000F22A0130B2009030B1002C12AC162C136C
:1005E0003C22072B2C1A012BAC1E012B2C1B012BA0
:1005F0000230B2005830B1002C12AC122C173C2241
:10060000072B2C1A072BAC1A072B2C1B5B216B21F9
:100610002D2B2C180F2BAC180F2B2C192D2B2C1825
:10062000182BAC18182B2C19182B0230B500292BBD
:100630002C18212BAC1C212B2C19212B0230B5009E
:10064000292B2C1C292BAC18292B2C19292B0130D8
:10065000B5002D2B0330B500AC11552A63000A14E8
:0E0660008A140A1182075D2A5F2A612A632A22
:02400E00843FED
:00000001FF
;PIC16F676
;CRC=8154  CREATED="09-Oct-20 00:15"
