:020000040000FA
:020000000F28C7
:10000800DE00030E8312A4000408A5000A08A60057
:100018005F08A700192810288312BD018313303008
:1000280084003D306D21830116290B1C1C281D28D6
:1000380004290519202821282528051924282528D8
:1000480004290B103C0803192A282B28EB280F0831
:10005800BA000E08B9008E018F01EB288E018F01BE
:100068001014BC01BC0ABB01042912303A028F30BB
:10007800031939020318412842284B2810303A0244
:100088009A300319390203184A284B284E28BC0114
:10009800101004290230DF005F08BC000429093071
:1000A8003A02C5300319390203185B285C284B282B
:1000B80007303A02D030031939020318642865283A
:1000C80066284B280330DF005F08BC000429013094
:1000D8003A025F30031939020318732874287D28FF
:1000E80000303A02C8300319390203187C287D28E9
:1000F80080281010BC0104290430DF005F08BC0010
:10010800042903303A0285300319390203188D286F
:100118008E287D2800303A02C830031939020318A6
:100128009628972898287D2801303A02F530031937
:100138003902031CA028A128BE280130A0000030E5
:10014800A1000030A2000030A3003B081F3C013E84
:10015800B2280310A00DA10DA20DA30DFF3E031D93
:10016800AD282008B5042108B6042208B7042308DE
:10017800B804DE280130A0000030A1000030A20041
:100188000030A3003B081F3C013ECF280310A00D00
:10019800A10DA20DA30DFF3E031DCA28A009A109A8
:1001A800A209A3092008B5052108B6052208B70544
:1001B8002308B8050130DF005F08BB0720303B0289
:1001C800031CE728E82866283D148B1104293C08FD
:1001D800A000A1012108003A0319F32804292008E6
:1001E800003A03193228013A03193928033A031946
:1001F8005328013A03196B28073A0319852804295B
:100208000C1C072908290B290C10BC011010270801
:10021800DF0026088A0025088400240E8300DE0EED
:100228005E0E090083169F010512851283120C10B9
:100238000B1083160C14103083129000C8308B00FA
:100248008316161583123D10BC010630AA00133020
:10025800A900AD30A800A80B2F29A90B2F29AA0B9C
:100268002F29362983123D1C3A293B2936293D106E
:10027800BC0110103508A8003608A9003708AA00E4
:100288003808AB0008300310AB0CAA0CA90CA80C5A
:10029800FF3E031D47292808DF005F08AF005A29E1
:1002A800851605166A29851205126A292F08A800DD
:1002B800A9012908003A031962296A292808013A7C
:1002C80003195429043A031957296A298B15362921
:1002D8000F2864008001840A040603190034040608
:0202E8006E297D
:02400E009431EB
:00000001FF
